{
  "transactions": [
    {
      "hash": "0x1bc5b6503bf05df6d23a2a3d0993ace12c962921f17dd1f7f9d07ea669138d2b",
      "transactionType": "CALL",
      "contractName": null,
      "contractAddress": "0x779877a7b0d9e8603169ddbd7836e478b4624789",
      "function": "transferAndCall(address,uint256,bytes)",
      "arguments": [
        "0x9DdfaCa8183c41ad55329BdeeD9F6A8d53168B1B",
        "1000000000000000000",
        "0x38e6fc6a53f87f6cda4540dbec713e9562440f6a55fabcd969fefd2b8547a237"
      ],
      "transaction": {
        "from": "0xc99ea0942e66c1f1a48dda9e5a3a898e5e001b77",
        "to": "0x779877a7b0d9e8603169ddbd7836e478b4624789",
        "gas": "0x14cbb",
        "value": "0x0",
        "input": "0x4000aea00000000000000000000000009ddfaca8183c41ad55329bdeed9f6a8d53168b1b0000000000000000000000000000000000000000000000000de0b6b3a76400000000000000000000000000000000000000000000000000000000000000000060000000000000000000000000000000000000000000000000000000000000002038e6fc6a53f87f6cda4540dbec713e9562440f6a55fabcd969fefd2b8547a237",
        "nonce": "0x59",
        "chainId": "0xaa36a7"
      },
      "additionalContracts": [],
      "isFixedGasLimit": false
    }
  ],
  "receipts": [
    {
      "status": "0x1",
      "cumulativeGasUsed": "0xc7477b",
      "logs": [
        {
          "address": "0x779877a7b0d9e8603169ddbd7836e478b4624789",
          "topics": [
            "0xddf252ad1be2c89b69c2b068fc378daa952ba7f163c4a11628f55a4df523b3ef",
            "0x000000000000000000000000c99ea0942e66c1f1a48dda9e5a3a898e5e001b77",
            "0x0000000000000000000000009ddfaca8183c41ad55329bdeed9f6a8d53168b1b"
          ],
          "data": "0x0000000000000000000000000000000000000000000000000de0b6b3a7640000",
          "blockHash": "0x1df6cc9df3597a4a00a3425fb782532ea8caabc805075e2b8c887ec8ab2e3766",
          "blockNumber": "0x6d683a",
          "transactionHash": "0x1bc5b6503bf05df6d23a2a3d0993ace12c962921f17dd1f7f9d07ea669138d2b",
          "transactionIndex": "0xce",
          "logIndex": "0x18",
          "removed": false
        },
        {
          "address": "0x779877a7b0d9e8603169ddbd7836e478b4624789",
          "topics": [
            "0xe19260aff97b920c7df27010903aeb9c8d2be5d310a2c67824cf3f15396e4c16",
            "0x000000000000000000000000c99ea0942e66c1f1a48dda9e5a3a898e5e001b77",
            "0x0000000000000000000000009ddfaca8183c41ad55329bdeed9f6a8d53168b1b"
          ],
          "data": "0x0000000000000000000000000000000000000000000000000de0b6b3a76400000000000000000000000000000000000000000000000000000000000000000040000000000000000000000000000000000000000000000000000000000000002038e6fc6a53f87f6cda4540dbec713e9562440f6a55fabcd969fefd2b8547a237",
          "blockHash": "0x1df6cc9df3597a4a00a3425fb782532ea8caabc805075e2b8c887ec8ab2e3766",
          "blockNumber": "0x6d683a",
          "transactionHash": "0x1bc5b6503bf05df6d23a2a3d0993ace12c962921f17dd1f7f9d07ea669138d2b",
          "transactionIndex": "0xce",
          "logIndex": "0x19",
          "removed": false
        },
        {
          "address": "0x9ddfaca8183c41ad55329bdeed9f6a8d53168b1b",
          "topics": [
            "0x1ced9348ff549fceab2ac57cd3a9de38edaaab274b725ee82c23e8fc8c4eec7a",
            "0x38e6fc6a53f87f6cda4540dbec713e9562440f6a55fabcd969fefd2b8547a237"
          ],
          "data": "0x00000000000000000000000000000000000000000000000029a2241af62c00000000000000000000000000000000000000000000000000003782dace9d900000",
          "blockHash": "0x1df6cc9df3597a4a00a3425fb782532ea8caabc805075e2b8c887ec8ab2e3766",
          "blockNumber": "0x6d683a",
          "transactionHash": "0x1bc5b6503bf05df6d23a2a3d0993ace12c962921f17dd1f7f9d07ea669138d2b",
          "transactionIndex": "0xce",
          "logIndex": "0x1a",
          "removed": false
        }
      ],
      "logsBloom": "0x00000004000000000000000000000000000000000020000000000004020000000000000080000000000000000000000000000000000000000000000000000000000000000000000000000008000000000000000000000002000020000020000008000000000000000000400000000000000000000000000000000010000040000000000000000000000000010000800000000020000000000000000000000000000000000000000000000000010000000000000000000001000004000000000000000002000000000000000000000080000000000000000100000000000000000010000000000000800000000000000000000000000000000000000000000000",
      "type": "0x2",
      "transactionHash": "0x1bc5b6503bf05df6d23a2a3d0993ace12c962921f17dd1f7f9d07ea669138d2b",
      "transactionIndex": "0xce",
      "blockHash": "0x1df6cc9df3597a4a00a3425fb782532ea8caabc805075e2b8c887ec8ab2e3766",
      "blockNumber": "0x6d683a",
      "gasUsed": "0xf0e5",
      "effectiveGasPrice": "0x81eec474",
      "from": "0xc99ea0942e66c1f1a48dda9e5a3a898e5e001b77",
      "to": "0x779877a7b0d9e8603169ddbd7836e478b4624789",
      "contractAddress": null
    }
  ],
  "libraries": [],
  "pending": [],
  "returns": {},
  "timestamp": 1732798801,
  "chain": 11155111,
  "commit": "1bb3a9a"
}