{
  "transactions": [
    {
      "hash": "0x5fdd959b1d5f8ccd617c64931ef68cfaf98b1237f9b46a60cb4d4d00fabd2a02",
      "transactionType": "CALL",
      "contractName": null,
      "contractAddress": "0x779877a7b0d9e8603169ddbd7836e478b4624789",
      "function": "transferAndCall(address,uint256,bytes)",
      "arguments": [
        "0x9DdfaCa8183c41ad55329BdeeD9F6A8d53168B1B",
        "3000000000000000000",
        "0x38e6fc6a53f87f6cda4540dbec713e9562440f6a55fabcd969fefd2b8547a237"
      ],
      "transaction": {
        "from": "0xc99ea0942e66c1f1a48dda9e5a3a898e5e001b77",
        "to": "0x779877a7b0d9e8603169ddbd7836e478b4624789",
        "gas": "0x1c1ff",
        "value": "0x0",
        "input": "0x4000aea00000000000000000000000009ddfaca8183c41ad55329bdeed9f6a8d53168b1b00000000000000000000000000000000000000000000000029a2241af62c00000000000000000000000000000000000000000000000000000000000000000060000000000000000000000000000000000000000000000000000000000000002038e6fc6a53f87f6cda4540dbec713e9562440f6a55fabcd969fefd2b8547a237",
        "nonce": "0x58",
        "chainId": "0xaa36a7"
      },
      "additionalContracts": [],
      "isFixedGasLimit": false
    }
  ],
  "receipts": [
    {
      "status": "0x1",
      "cumulativeGasUsed": "0x6ba00f",
      "logs": [
        {
          "address": "0x779877a7b0d9e8603169ddbd7836e478b4624789",
          "topics": [
            "0xddf252ad1be2c89b69c2b068fc378daa952ba7f163c4a11628f55a4df523b3ef",
            "0x000000000000000000000000c99ea0942e66c1f1a48dda9e5a3a898e5e001b77",
            "0x0000000000000000000000009ddfaca8183c41ad55329bdeed9f6a8d53168b1b"
          ],
          "data": "0x00000000000000000000000000000000000000000000000029a2241af62c0000",
          "blockHash": "0x3717ad5698c7b2ca3c556da5e9ee8c16cf995c8c42c5bc0a3b93a7d3e5e8f65b",
          "blockNumber": "0x6d5b5e",
          "transactionHash": "0x5fdd959b1d5f8ccd617c64931ef68cfaf98b1237f9b46a60cb4d4d00fabd2a02",
          "transactionIndex": "0x6e",
          "logIndex": "0x32",
          "removed": false
        },
        {
          "address": "0x779877a7b0d9e8603169ddbd7836e478b4624789",
          "topics": [
            "0xe19260aff97b920c7df27010903aeb9c8d2be5d310a2c67824cf3f15396e4c16",
            "0x000000000000000000000000c99ea0942e66c1f1a48dda9e5a3a898e5e001b77",
            "0x0000000000000000000000009ddfaca8183c41ad55329bdeed9f6a8d53168b1b"
          ],
          "data": "0x00000000000000000000000000000000000000000000000029a2241af62c00000000000000000000000000000000000000000000000000000000000000000040000000000000000000000000000000000000000000000000000000000000002038e6fc6a53f87f6cda4540dbec713e9562440f6a55fabcd969fefd2b8547a237",
          "blockHash": "0x3717ad5698c7b2ca3c556da5e9ee8c16cf995c8c42c5bc0a3b93a7d3e5e8f65b",
          "blockNumber": "0x6d5b5e",
          "transactionHash": "0x5fdd959b1d5f8ccd617c64931ef68cfaf98b1237f9b46a60cb4d4d00fabd2a02",
          "transactionIndex": "0x6e",
          "logIndex": "0x33",
          "removed": false
        },
        {
          "address": "0x9ddfaca8183c41ad55329bdeed9f6a8d53168b1b",
          "topics": [
            "0x1ced9348ff549fceab2ac57cd3a9de38edaaab274b725ee82c23e8fc8c4eec7a",
            "0x38e6fc6a53f87f6cda4540dbec713e9562440f6a55fabcd969fefd2b8547a237"
          ],
          "data": "0x000000000000000000000000000000000000000000000000000000000000000000000000000000000000000000000000000000000000000029a2241af62c0000",
          "blockHash": "0x3717ad5698c7b2ca3c556da5e9ee8c16cf995c8c42c5bc0a3b93a7d3e5e8f65b",
          "blockNumber": "0x6d5b5e",
          "transactionHash": "0x5fdd959b1d5f8ccd617c64931ef68cfaf98b1237f9b46a60cb4d4d00fabd2a02",
          "transactionIndex": "0x6e",
          "logIndex": "0x34",
          "removed": false
        }
      ],
      "logsBloom": "0x00000004000000000000000000000000000000000020000000000004020000000000000080000000000000000000000000000000000000000000000000000000000000000000000000000008000000000000000000000002000020000020000008000000000000000000400000000000000000000000000000000010000040000000000000000000000000010000800000000020000000000000000000000000000000000000000000000000010000000000000000000001000004000000000000000002000000000000000000000080000000000000000100000000000000000010000000000000800000000000000000000000000000000000000000000000",
      "type": "0x2",
      "transactionHash": "0x5fdd959b1d5f8ccd617c64931ef68cfaf98b1237f9b46a60cb4d4d00fabd2a02",
      "transactionIndex": "0x6e",
      "blockHash": "0x3717ad5698c7b2ca3c556da5e9ee8c16cf995c8c42c5bc0a3b93a7d3e5e8f65b",
      "blockNumber": "0x6d5b5e",
      "gasUsed": "0x133b1",
      "effectiveGasPrice": "0x2bc798fb",
      "from": "0xc99ea0942e66c1f1a48dda9e5a3a898e5e001b77",
      "to": "0x779877a7b0d9e8603169ddbd7836e478b4624789",
      "contractAddress": null
    }
  ],
  "libraries": [],
  "pending": [],
  "returns": {},
  "timestamp": 1732756922,
  "chain": 11155111,
  "commit": "1bb3a9a"
}